:020000040800F2
:10000000F006002089010008910100089301000812
:100010009501000897010008990100080000000000
:100020000000000000000000000000009B0100082C
:100030009D010008000000009F010008A5050008C0
:10004000A3010008A3010008A3010008950300080C
:10005000A3010008A301000875020008A30100081D
:10006000A3010008A3010008A3010008A3010008E0
:10007000A3010008A3010008A3010008A3010008D0
:10008000A3010008A3010008A3010008A3010008C0
:10009000A3010008A3010008A3010008A3010008B0
:1000A000A3010008A3010008A3010008A3010008A0
:1000B00031060008A301000800000000A3010008A9
:1000C000A30100080000000000000000A3010008D8
:1000D00000000000A3010008A301000800000000C8
:1000E000A3010008A3010008A301000800F002F822
:1000F00000F03AF80AA090E8000C82448344AAF188
:100100000107DA4501D100F02FF8AFF2090EBAE885
:100110000F0013F0010F18BFFB1A43F0010318473B
:10012000940D0000B40D0000103A24BF78C878C1C7
:10013000FAD8520724BF30C830C144BF04680C60ED
:10014000704700000023002400250026103A28BF35
:1001500078C1FBD8520728BF30C148BF0B60704739
:100160001FB51FBD10B510BD00F036F81146FFF7E2
:10017000F7FF00F08DFA00F054F803B4FFF7F2FF38
:1001800003BC00F057F800000948804709480047C1
:10019000FEE7FEE7FEE7FEE7FEE7FEE7FEE7FEE737
:1001A000FEE7FEE704480549054A064B7047000094
:1001B000D1050008ED000008F0000020F006002046
:1001C000F0020020F00200207047704770470000E6
:1001D000004870478C0000207546FFF7F9FFAE46D7
:1001E00005006946534620F00700854618B020B543
:1001F000FFF7D8FFBDE820404FF000064FF00007A2
:100200004FF000084FF0000B21F00701AC46ACE8BE
:10021000C009ACE8C009ACE8C009ACE8C0098D462B
:10022000704710B50446AFF300802046BDE810408B
:10023000FFF7A3BF01491820ABBEFEE7260002006E
:100240007047000010E00A494FF0E02251610021A0
:1002500091610521116100BF4FF0E021096901F4AE
:1002600080310029F8D0401E0028ECD170470000F2
:100270003F19010010B5012000F01CF880B10120E9
:1002800000F012F84FF40051064800F027F84FF440
:10029000FA70FFF7D7FF4FF40051024800F020F842
:1002A00010BD0000001001400149086070470000C7
:1002B00014040140014600200022074B1B6803EA9A
:1002C0000102054B14331B680B4013B10AB1012026
:1002D00000E00020704700000004014041617047C9
:1002E000016170472848C06940F000602649C86134
:1002F0000846C06940F08050C8612448006840F456
:100300008070224908602048006A40F001001E49C0
:10031000086200BF1C48006AC0F340000028F9D002
:100320001948006A40F48070174908620846006A5C
:1003300020F4007008620846006A40F40040086239
:1003400000BF13480088C0F340100028F9D01048BF
:10035000008840F010000E49088047F6FF700C49F5
:10036000083108800020091F0880081F008820F03D
:100370001000091F088000BF05480088C0F3401026
:100380000028F9D0704700000010024000700040C3
:10039000042800401F48008800F00100002838D0E1
:1003A0001C48001F008800F00100002831D01948C7
:1003B000008820F001001749088017480078401C89
:1003C00015490870084600783C2822D100200870A2
:1003D00012480078401C11490870084600783C28F3
:1003E00017D1002008700E480078401C0C49087096
:1003F0000846007818280CD10020087009480078B9
:10040000401C0849087008460078092801D10220DC
:100410000870704704280040760000207500002016
:10042000740000207700002010B500F001F810BD26
:100430000CB50020019000903348006840F48030F3
:100440003149086000BF3048006800F40030009077
:100450000198401C0190009818B90198B0F5A06F60
:10046000F1D12948006800F4003010B1012000905B
:1004700001E0002000900098012843D12348006843
:1004800040F01000214908600846006820F0030091
:1004900008600846006840F0020008601A4840689A
:1004A000194948600846406848600846406840F47A
:1004B000806048600846406820F47C104860084628
:1004C000406840F4E81048600846006840F08070DA
:1004D000086000BF0C48006800F000700028F9D0E8
:1004E0000948406820F00300074948600846406812
:1004F00040F00200486000BF0348406800F00C0074
:100500000828F9D10CBD0000001002400020024074
:100510000C484FF0E02148610020886108460069DE
:1005200020F00400001D08610846006920F0020068
:10053000801C08610846006920F00100401C086129
:10054000704700003F1901002DE9F05F4FF0E021F6
:100550008969114A501A00F0E5FA804600220F4BD3
:1005600000F088F904460D460D48006800F02CFCA8
:10057000064622462B4600F0D5F8824600F0A0F849
:10058000074908604FF0E020006920F001004FF0BB
:10059000E0210861BDE8F09F3F190100F093F140B0
:1005A000480000202DE9F0410748006800F00CFCED
:1005B00006460022054B00F0B5F8044600F080F82E
:1005C00001490860BDE8F081480000200000F03FCC
:1005D00010B51348006840F0010011490860084652
:1005E0004068104908400E494860084600680E49B6
:1005F00008400B4908600846006820F48020086025
:100600000846406820F4FE0048604FF41F008860F0
:10061000FFF70AFF4FF000600449086010BD0000BA
:10062000001002400000FFF8FFFFF6FE08ED00E0BA
:1006300010B54FF08040008A00F0010010B34FF079
:100640008040808900F00100E0B14FF08040008AD6
:1006500020F001004FF0804108820B480068401CE8
:10066000094908600846007800F0010028B94FF4F5
:1006700000510648FFF734FE04E04FF400510348F0
:10068000FFF72CFE10BD000070000020001001409C
:1006900000BFFFF727FEFFF73BFF0848008820F068
:1006A00001000649088000BF0448008800F00100EE
:1006B0000028F9D0FFF748FF00BFFEE704280040FC
:1006C00021F00042A2F16052B2F5801F01F0004318
:1006D00028BFD2F17F6C0BD95FEA001C43EAC2024B
:1006E00042EB507018BF704728BF20F001007047E0
:1006F000B2F5801FBCBF184670474FEA410C1CF58D
:10070000001F02D2084600F0D0BB70B500F01DFA01
:1007100000000089FFF7F6BF4FF00040A0F5800011
:100720007047000010B591EA030F48BF83F0004303
:1007300000F16882841A71EB030C05D2121943EBA5
:100740000C03001B61EB0C01DFF824E14FEA1154AC
:10075000A4EB135C1EEA430F18BF9EEA445F73D0FC
:1007600023EA0E03DCF1200E21EA045143F4801346
:1007700032D322FA0CFE10EB0E0023FA0CFE41EBF2
:100780000E01CCF1200E03FA0EFE10EB0E0051F11B
:100790000001B1F5801FCCF1200E32D201EB0451E3
:1007A00012FA0EF2BDE8104058BF7047401C38BF27
:1007B0005FEA420218BF7047002814BF20F0010012
:1007C00041F100014FEA410313F5001F38BF7047A4
:1007D000A1F1C04100F007BA012A43EB0302ACF1DA
:1007E000200CDCF11F0E32BF4FF0000E23FA0CF389
:1007F00010EB030041EB0451B4EB115FD0D0A1EB3F
:10080000045101F5801149085FEA300001EB045101
:100810000ED350F1000038BF12FA0EFE08D1BDE829
:100820001040C9E7401C38BF5FEA4202CAD1C3E7A3
:10083000BDE810404FEA410313F5001F38BF704771
:10084000A1F1C04100F0CFB99EEA445F08D011EA9F
:100850005E0FBDE8104004BF01F00041002070476A
:10086000BDE8104070B500F070F900BF64FBBE3EFB
:100870000000E0FF2DE9C04130B4DFF8A0C23CEA3F
:10088000111418BF3CEA131400F0EC8081EA030550
:100890001CEA111444EAD57418BF1CEA131500F0C1
:1008A000C780A4EB05044FF0004545EAC12145EAA5
:1008B000C32341EA505143EA525304F17F749942F1
:1008C00004F500344FEAC0204FEAC22208BF90422C
:1008D00000F09C804FEA13650FF24016765D4FEAF8
:1008E000134506FB05F7C7F1807706FB07F74FEACC
:1008F000D737A7FB03687642C8F58038A7FB06CE3A
:1009000038BFA8F1010807FB08E64FF0000EA6FB70
:10091000028CE6FB03CEDCF1000CCEF1004E38BFBA
:10092000AEF1010EA6FB0C584FF000074FF000058A
:10093000E6FB0E87A1FB08C6A0FB07CE16EB0E0652
:1009400045F10005E1FB076515F1E04E7EBFA4F51A
:1009500080345FEA46066D4116F1800745F10005D7
:100960004FEA17274FEA066647EA0567A6F1DE4613
:10097000B6F1805F4FEA15251FD9384624F0010CE7
:1009800005EBC471BCF1FE6F01EB0C1102D8F0BC99
:10099000BDE8008124425CBF01F5801E9EEAC47F51
:1009A00002D4F0BCBDE80081244238D4F0BCA1F1EF
:1009B000C041BDE8004100F016B94FEAD22242EA38
:1009C00043524FEAD323A7FB02864FEAD02040EAE6
:1009D000415007FB03661EEA0E0F4FEAD12105FBCB
:1009E000026658BFA6EB0056B6EB00564FEA520E11
:1009F0004EEAC37E18EB0E0E56EB530EBDD518EB28
:100A000002085E417F1C55F10005B6E74FF48015E2
:100A10004FF000074FF000064FF00008ADE7F0BCC4
:100A20004FF0000001F1C04101F00041BDE800813C
:100A300011EA0C1F0CEA131500D00CE013EA0C1F8E
:100A400000F025804FF00000F0BC81EA030101F0C6
:100A50000041BDE80081F0BCBDE8004181EA03012E
:100A600000F0C1B8F0BCBDE8004170B500F06DF811
:100A7000097EFC3E00F007B881EA03014FF0000058
:100A800001F00041704781EA030100F0ACB8F0BC0E
:100A9000BDE800414FF0000021497047FFFDFBF920
:100AA000F7F5F4F2F0EEEDEBE9E8E6E4E3E1E0DEA1
:100AB000DDDBDAD8D7D5D4D3D1D0CFCDCCCBCAC813
:100AC000C7C6C5C4C2C1C0BFBEBDBCBBBAB9B8B73A
:100AD000B6B5B4B3B2B1B0AFAEADACABAAA9A8A82D
:100AE000A7A6A5A4A3A3A2A1A09F9F9E9D9C9C9BFB
:100AF0009A999998979796959594939392919190A6
:100B00008F8F8E8E8D8C8C8B8B8A89898888878736
:100B10008685858484838382828181800000FF07AB
:100B20000000F87FB0FA80F310FA03F10AD0C3F1A5
:100B30001D0303F580634FEA41504FEA035202EB75
:100B4000D12170474FF0000070470EF1020E2EF0D9
:100B5000030E5EF8046B364205D4012A43EB03050D
:100B600015F5001F12D8012841EB010C1CF5001FE0
:100B70000CD80ED14FEAD17C15F5001F0CEB4C0CB4
:100B80000CF1020C08BF4CEBD37C04E04FF0080CD6
:100B900001E04FEAD37C0CEB4C0526FA05F606F093
:100BA0000706B6F1040C06D20EEB860CBDE87040C9
:100BB0004CF0010C6047DFE80CF0090B02024FF02B
:100BC00000414FF00000A1F5002170BD194610460C
:100BD000012851EB010418BFD4F5001484BF002094
:100BE00001F0004170BD0808A0F500114FEA310185
:100BF0007047000010B591EA030F48BF83F000432F
:100C00003FF598AD841A71EB030C07D212198CF0E2
:100C1000004C43EB0C03001B61EB0C01DFF8A4E17B
:100C20004FEA1154A4EB135C1EEA430F18BF9EEA6F
:100C3000445F00F0B08023EA6E03524221EA04517F
:100C4000C3EB6E0338BF5B1EDCF1200E25D322FA06
:100C50000CFE10EB0E0043FA0CFE41EB0E01CCF142
:100C6000200E03FA0EFE10EB0E0051F10001CCF144
:100C7000200E29D412FA0EF201EB0451BDE8104007
:100C800058BF7047401C1CBFB2F1004F704700288E
:100C90000CBF491C20F00100704712EB020E43EB21
:100CA000030218BF4FF0010E4EEA4202ACF1200CD5
:100CB000DCF11E0E54D943FA0CFE10EB0E0051F17C
:100CC000FF31CCF11E0ED5D50EF1010E12FA0EFE3B
:100CD000404141EB010101EB445C5FEA5C5C10D9EF
:100CE00010EBDE7001EB045138BFBEF1004FBDE8E0
:100CF000104018BF704700280CBF491C20F00100AD
:100D0000704730D24FEAD42C11F5001124F400645E
:100D10001BD0B1FA81F20B3AA41AA41ED2F120031F
:100D2000914030FA03F31943904001EBCC71002C51
:100D300001EB0451BDE81040A8BF704701F1C0416C
:100D40004FF0000001F000417047B0FA80F310FA54
:100D500003F100D110BDE41A173C4805C90AE4E7C5
:100D600001EB045110BD491001EB0451BDE81040E6
:100D70004FEA300002E04FF0000170474A0008BF20
:100D80000042F8D0B2F5001F28BF704701F00041C3
:100D90004FF0000070479EEA445F07D011EA5E0FF3
:100DA000BDE8104004BF002100207047BDE810409E
:100DB00070B5FFF7CAFE00BF40DFF63E83F000418A
:100DC000104670470000E0FF43004FEAD30C4FEAA3
:100DD0003C0C43401FBF40070CF1605113F0FE4F25
:100DE00070471CF0006F03D100200CF000417047E9
:100DF0000CF0004343EA507010B540EACC0000F01C
:100E00000EF800BF000000924FEA0001FFF7EBBEB2
:100E10004FF000414FF00000A1F5002170470EF1A6
:100E2000020E2EF0030E5EF8044B244204D44FEA67
:100E30004102B2F17F4F11D84FEA4003B3F17F4F27
:100E40000CD80ED14FEAD07CB2F17F4F0CEB4C0C9A
:100E50000CF1020C08BF4CEBD17C04E04FF0080C05
:100E600001E04FEAD17C0CEB4C0324FA03F404F0CC
:100E70000704B4F1040C06D20EEB840CBDE810405C
:100E80004CF0010C6047DFE80CF0070802024FF05D
:100E90000040A0F5800010BD0846420018BFD2F106
:100EA000807288BF00F0004010BDFF2141EAD050A1
:100EB000C0057047D40E0008000000208C00000020
:100EC00028010008600F00088C0000206406000064
:100ED00044010008000000000000000000000000C5
:100EE0000000000000000000000000000000000002
:100EF0004C696E684B69656E2D33362E636F6D00DD
:100F0000C0F9A4B0999282F880900000010000001E
:100F10000200000010111213141516170000000033
:100F200000010000000100000002000000040000B9
:100F300000010000000200000004000000000000AA
:100F40000000000000000000000000020000140289
:100F500087D6120000000000000000000000000022
:040000050800018965
:00000001FF
